:100000000C942A000C9497000C94C0000C94E90006
:100010000C9447000C9447000C9447000C94470044
:100020000C9447000C9447000C9447000C94470034
:100030000C9447000C9447000C9447000C94470024
:100040000C9447000C9447000C9447000C94470014
:100050000C94470011241FBECFE5D8E0DEBFCDBF12
:1000600011E0A0E6B0E0E6EBF9E002C005900D92E9
:10007000A033B107D9F721E0A0E3B1E001C01D92A0
:10008000A633B207E1F70E94C5040C94D9040C947E
:10009000000041E050E060E070E080E090E00C940F
:1000A0003E020C9449000C9449008FB780688FBFC2
:1000B0008BB780648BBF85B7836085BF8FB780683F
:1000C0008FBF8BB780688BBF85B78C6085BF8FB7BC
:1000D00080688FBF8BB780628BBF84B7806484BF1A
:1000E00008959FEF980F9330C0F461157105C1F02A
:1000F000823039F0833051F07093350160933401D0
:1001000009C0709333016093320104C070933101D0
:100110006093300181E090E0089582E090E00895DE
:1001200083E090E0089578940895F89408951F92DC
:100130000F920FB60F9211242F933F934F935F931B
:100140006F937F938F939F93AF93BF93EF93FF939F
:10015000E0913401F0913501309709F00995FF9154
:10016000EF91BF91AF919F918F917F916F915F912F
:100170004F913F912F910F900FBE0F901F901895A8
:100180001F920F920FB60F9211242F933F934F930C
:100190005F936F937F938F939F93AF93BF93EF93EF
:1001A000FF93E0913201F0913301309709F0099506
:1001B000FF91EF91BF91AF919F918F917F916F913F
:1001C0005F914F913F912F910F900FBE0F901F9015
:1001D00018951F920F920FB60F9211242F933F93F1
:1001E0004F935F936F937F938F939F93AF93BF933F
:1001F000EF93FF93E0913001F0913101309709F0D6
:100200000995FF91EF91BF91AF919F918F917F9150
:100210006F915F914F913F912F910F900FBE0F9073
:100220001F9018956830710508F0CAC0413051051B
:1002300009F445C028F04230510509F47AC0C3C022
:100240008130910519F1A0F08230910551F10397A9
:1002500009F0BCC021B381E090E001C0880F6A952D
:10026000EAF7922F982B91BB92B380958923A4C073
:100270002AB381E090E001C0880F6A95EAF7922FD7
:10028000982B9ABB9BB38095892378C027B301C074
:10029000880F6A95EAF7922F982B97BB98B38095B1
:1002A0003AC024B381E090E001C0880F6A95EAF774
:1002B000922F982B94BB95B3809589237BC0813076
:1002C0009105F9F090F08230910539F1039709F02A
:1002D0007DC081B301C0440F6A95EAF7409584233D
:1002E00081BB82B3482342BB68C08AB301C0440FBC
:1002F0006A95EAF7409584238ABB8BB348234BBBAE
:100300005CC027B301C0880F6A95EAF78095922FE9
:10031000982397BB98B389233EC084B301C0440F90
:100320006A95EAF74095842384BB85B3482345BB8F
:1003300044C08130910521F1A0F08230910569F12E
:10034000039709F043C021B381E090E001C0880F1A
:100350006A95EAF7982F9095922391BB92B3892BD7
:100360002BC02AB381E090E001C0880F6A95EAF7BC
:10037000982F909592239ABB9BB3892B8BBB1DC062
:1003800027B301C0880F6A95EAF7982F90959223BA
:1003900097BB98B3892B88BB10C024B381E090E051
:1003A00001C0880F6A95EAF7982F9095922394BB25
:1003B00095B3892B85BB01C082BB81E090E0089595
:1003C00082E090E0089584E090E0089583E090E07A
:1003D000089561307105D9F020F06230710579F12E
:1003E00047C08130910569F048F08230910561F095
:1003F000039709F040C08FEF81BB1FC08FEF8ABB0E
:1004000012C08FEF87BB14C08FEF84BB14C0813044
:10041000910569F038F08230910561F0039759F544
:1004200011BA0BC01ABA1BBA81E090E0089517BA4E
:1004300018BAFACF14BA15BAF7CF12BAF5CF81307D
:10044000910571F048F08230910571F0039799F4AD
:1004500011BA8FEF82BBE8CF1ABA8FEF8BBBE4CF14
:1004600017BA8FEF88BBE0CF14BA8FEF85BBDCCF14
:1004700084E090E0089583E090E00895683071058D
:1004800008F065C04115510569F14130510509F089
:1004900061C081309105B9F070F082309105D1F0E2
:1004A000039709F05AC082B301C0440F6A95EAF776
:1004B000482B42BB49C08BB301C0440F6A95EAF791
:1004C000482B4BBB41C028B301C0880F6A95EAF79F
:1004D000822B2EC085B301C0440F6A95EAF7482BE2
:1004E00045BB32C081309105E1F080F0823091054A
:1004F00009F1039791F522B381E090E001C0880FE4
:100500006A95EAF78095822382BB1EC02BB381E0F7
:1005100090E001C0880F6A95EAF7809582238BBB33
:1005200013C028B301C0880F6A95EAF7809582232B
:1005300088BB0AC025B381E090E001C0880F6A95AE
:10054000EAF78095822385BB81E090E0089582E000
:1005500090E0089585E090E0089583E090E00895AC
:100560006115710521F06130710591F028C081306D
:10057000910551F038F08230910541F0039711F563
:1005800012BA14C01BBA12C018BA10C015BA0EC0E5
:100590008130910571F040F08230910569F0039748
:1005A00089F48FEF82BB02C08FEF8BBB81E090E0BC
:1005B00008958FEF88BBFACF8FEF85BBF7CF85E02B
:1005C00090E0089583E090E00895FB01813091056B
:1005D00051F038F08230910549F08330910541F0B7
:1005E00008958BB301C088B38083089585B3FCCF91
:1005F00082B380830895FA0168307105D8F48130A0
:10060000910551F038F08230910541F00397A9F43B
:1006100080B305C089B303C086B301C083B390E043
:1006200002C0959587956A95E2F78170808381E095
:1006300090E0089582E090E0089583E090E00895CE
:100640008130910551F038F08230910541F00397E7
:1006500051F462BB05C06BBB03C068BB01C065BB86
:1006600081E090E0089583E090E00895AC01089760
:1006700068F561307105A1F0E0F06230710549F56F
:100680005AB321E030E0C90101C0880F4A95EAF76A
:10069000982F909595239ABB9BB3892B8BBB13C046
:1006A0008AB301C0660F4A95EAF7609568236ABB72
:1006B0000AC05AB321E030E0C90101C0880F4A9551
:1006C000EAF7852B8ABB81E090E0089582E090E014
:1006D000089585E090E008950F931F93CF93DF93E3
:1006E00008EE10E0C0E0D0E0F801619171918F0157
:1006F000CE010E9436038330910531F0059721F039
:100700002196C032D10581F7DF91CF911F910F91D2
:10071000089568307105A0F58130910561F030F0E1
:100720008230910569F0039781F00895E0916600A9
:10073000F09167000EC0E0916400F091650009C07F
:10074000E0916200F091630004C0E0916000F091DC
:1007500061004130510541F4828101C0440F6A9526
:10076000EAF7482B42830895452B51F4228181E01A
:1007700090E001C0880F6A95EAF780958223828312
:100780000895FC0124E0F695E7952A95E1F7EF70CE
:10079000282F2F70E43010F4283018F082E090E019
:1007A00002C080E090E06230710510F083E090E0DC
:1007B0006115710599F06130710521F5F0E0EE0FDA
:1007C000FF1FE85DFE4F0190F081E02D818101C0A7
:1007D000660F2A95EAF7682B618312C0F0E0EE0FEE
:1007E000FF1FE85DFE4F0190F081E02D318181E037
:1007F00090E001C0880F2A95EAF7809583238183D2
:1008000081E090E00895FC0134E0F695E7953A9593
:10081000E1F7EF708F7061307105E1F030F0623018
:10082000710559F185E090E00895F0E0EE0FFF1FAB
:10083000E85DFE4F0190F081E02D428121E030E043
:10084000B90102C0660F771F8A95E2F7CB01842BAE
:10085000828310C0F0E0EE0FFF1FE85DFE4F0190B5
:10086000F081E02D928101C0660F8A95EAF76095CC
:100870006923628381E090E0089584E090E0089528
:10088000EF92FF921F93CF93DF9388E6E82E80E0EC
:10089000F82E10E0812F86958695869520E1829F1F
:1008A000C0011124C12FC770C82B0C2E000CDD0B0A
:1008B000F70160817181CE010E94C103F70162815D
:1008C0007381CE010E9403041F5FF4E0EF0EF11C60
:1008D000103201F7DF91CF911F91FF90EF900895B3
:1008E00061307105D9F020F06230710579F147C0AF
:1008F0008130910569F048F08230910561F00397ED
:1009000009F040C08FEF81BB1FC08FEF8ABB12C0C0
:100910008FEF87BB14C08FEF84BB14C0813091056B
:1009200069F038F08230910561F0039759F511BAFA
:100930000BC01ABA1BBA81E090E0089517BA18BA32
:10094000FACF14BA15BAF7CF12BAF5CF81309105A4
:1009500071F048F08230910571F0039799F411BA63
:100960008FEF82BBE8CF1ABA8FEF8BBBE4CF17BAF9
:100970008FEF88BBE0CF14BA8FEF85BBDCCF83E06D
:1009800090E0089586E090E008950E9440040E945F
:10099000550063E570E081E00E94710061E570E060
:1009A00082E00E94710069E470E083E00E947100BF
:0609B000FFCFF894FFCF19
:1009B600300033003600390001000100010001005B
:1009C6000100010001000100010001000100010019
:1009D6000100010001000100010001000100010009
:1009E60000000000010001000100010001000100FB
:1009F60001000100010001000100000001000000EB
:100A060001000000010000000100000001000000DC
:100A160001000000010000000100010001000100CA
:100A260000000000000000000100010001000100BC
:100A360001000100010001000000000000000000AC
:100A46000000000000000000020002000200020098
:100A56000000000000000000000000000000000090
:100A6600000000000000000000000000020000007E
:100A7600020000000100000039003600330030009B
:00000001FF
