:100000000C942A000C943F000C943F000C943F0089
:100010000C943F000C943F000C943F000C943F0064
:100020000C943F000C943F000C943F000C943F0054
:100030000C943F000C943F000C943F000C943F0044
:100040000C943F000C943F000C943F000C943F0034
:100050000C943F0011241FBECFE5D8E0DEBFCDBF1A
:1000600010E0A0E6B0E0E4E7F7E002C005900D92F2
:10007000AC3CB107D9F70E947A030C94B8030C94F6
:100080000000CF93DF93C8E6D0E06A817B8142E035
:1000900050E0888199810E94CB00269680E0CA3783
:1000A000D80799F7DF91CF910895EF92FF920F93C0
:1000B0001F93CF93DF931F92CDB7DEB7833020F528
:1000C0007B0196E0899F8001112408591F4FF80198
:1000D00062817381AE014F5F5F4F808191810E9489
:1000E000B402F80124813581998181E02230310503
:1000F00019F4911104C002C0913009F480E0F701B5
:10010000808381E090E002C082E090E00F90DF9178
:10011000CF911F910F91FF90EF900895CF93DF93B0
:10012000CAE7D0E06A817B8140E050E08881998114
:100130000E94CB00269680E0CC38D80799F7DF9153
:10014000CF910895833008F56230710508F5282FA6
:1001500030E096E0899FF0011124E658FF4F84813A
:100160009581892B11F081E06827462F50E086E0C9
:10017000829FF001839FF00D1124E658FF4F6281AA
:100180007381808191810C94F70186E090E008955D
:1001900084E090E008956830710508F0CAC04130ED
:1001A000510509F445C028F04230510509F47AC0E0
:1001B000C3C08130910519F1A0F08230910551F151
:1001C000039709F0BCC021B381E090E001C0880F23
:1001D0006A95EAF7922F982B91BB92B38095892369
:1001E000A4C02AB381E090E001C0880F6A95EAF7C5
:1001F000922F982B9ABB9BB38095892378C027B305
:1002000001C0880F6A95EAF7922F982B97BB98B395
:1002100080953AC024B381E090E001C0880F6A95D0
:10022000EAF7922F982B94BB95B3809589237BC0D6
:1002300081309105F9F090F08230910539F1039702
:1002400009F07DC081B301C0440F6A95EAF740957B
:10025000842381BB82B3482342BB68C08AB301C0F8
:10026000440F6A95EAF7409584238ABB8BB34823F1
:100270004BBB5CC027B301C0880F6A95EAF7809535
:10028000922F982397BB98B389233EC084B301C0B3
:10029000440F6A95EAF74095842384BB85B34823CD
:1002A00045BB44C08130910521F1A0F08230910519
:1002B00069F1039709F043C021B381E090E001C0E8
:1002C000880F6A95EAF7982F9095922391BB92B385
:1002D000892B2BC02AB381E090E001C0880F6A957A
:1002E000EAF7982F909592239ABB9BB3892B8BBBEF
:1002F0001DC027B301C0880F6A95EAF7982F909523
:10030000922397BB98B3892B88BB10C024B381E09C
:1003100090E001C0880F6A95EAF7982F9095922394
:1003200094BB95B3892B85BB01C082BB81E090E073
:10033000089582E090E0089584E090E0089583E0DD
:1003400090E0089561307105D9F020F062307105B8
:1003500079F147C08130910569F048F0823091050C
:1003600061F0039709F040C08FEF81BB1FC08FEF92
:100370008ABB12C08FEF87BB14C08FEF84BB14C041
:100380008130910569F038F08230910561F0039772
:1003900059F511BA0BC01ABA1BBA81E090E0089562
:1003A00017BA18BAFACF14BA15BAF7CF12BAF5CFEE
:1003B0008130910571F048F08230910571F003971A
:1003C00099F411BA8FEF82BBE8CF1ABA8FEF8BBBCB
:1003D000E4CF17BA8FEF88BBE0CF14BA8FEF85BB9D
:1003E000DCCF84E090E0089583E090E008956830E9
:1003F000710508F065C04115510569F1413051059D
:1004000009F061C081309105B9F070F0823091053A
:10041000D1F0039709F05AC082B301C0440F6A9526
:10042000EAF7482B42BB49C08BB301C0440F6A9521
:10043000EAF7482B4BBB41C028B301C0880F6A952F
:10044000EAF7822B2EC085B301C0440F6A95EAF704
:10045000482B45BB32C081309105E1F080F08230FD
:10046000910509F1039791F522B381E090E001C075
:10047000880F6A95EAF78095822382BB1EC02BB352
:1004800081E090E001C0880F6A95EAF780958223A9
:100490008BBB13C028B301C0880F6A95EAF780951B
:1004A000822388BB0AC025B381E090E001C0880F99
:1004B0006A95EAF78095822385BB81E090E00895F4
:1004C00082E090E0089585E090E0089583E090E078
:1004D00008956115710521F06130710591F028C012
:1004E0008130910551F038F08230910541F0039749
:1004F00011F512BA14C01BBA12C018BA10C015BA3E
:100500000EC08130910571F040F08230910569F0A4
:10051000039789F48FEF82BB02C08FEF8BBB81E022
:1005200090E008958FEF88BBFACF8FEF85BBF7CFB0
:1005300085E090E0089583E090E00895FB0181302C
:10054000910551F038F08230910549F083309105E2
:1005500041F008958BB301C088B38083089585B3BB
:10056000FCCF82B380830895FA0168307105D8F416
:100570008130910551F038F08230910541F00397B8
:10058000A9F480B305C089B303C086B301C083B3A7
:1005900090E002C0959587956A95E2F78170808317
:1005A00081E090E0089582E090E0089583E090E09B
:1005B00008958130910551F038F08230910541F075
:1005C000039751F462BB05C06BBB03C068BB01C09D
:1005D00065BB81E090E0089583E090E00895AC0170
:1005E000089768F561307105A1F0E0F0623071059F
:1005F00049F55AB321E030E0C90101C0880F4A959E
:10060000EAF7982F909595239ABB9BB3892B8BBBC8
:1006100013C08AB301C0660F4A95EAF76095682354
:100620006ABB0AC05AB321E030E0C90101C0880F9B
:100630004A95EAF7852B8ABB81E090E0089582E035
:1006400090E0089585E090E008950F931F93CF9375
:10065000DF930CE810E0C0E0D0E0F8016191719107
:100660008F01CE010E94EF028330910531F0059792
:1006700021F02196C032D10581F7DF91CF911F91F2
:100680000F91089568307105A0F58130910561F0F2
:1006900030F08230910569F0039781F00895E09180
:1006A0006600F09167000EC0E0916400F091650073
:1006B00009C0E0916200F091630004C0E091600025
:1006C000F09161004130510541F4828101C0440F35
:1006D0006A95EAF7482B42830895452B51F422810D
:1006E00081E090E001C0880F6A95EAF78095822347
:1006F00082830895CF93DF9300D01F92CDB7DEB7EA
:100700000E9441000E948E00BE016D5F7F4F80E01D
:100710000E945500BE016E5F7F4F81E00E94550030
:10072000BE016F5F7F4F82E00E9455008B81811177
:1007300003C061E070E003C060E070E080E00E9410
:10074000A2008A81811103C061E070E002C060E014
:1007500070E081E00E94A2008981811103C061E004
:1007600070E002C060E070E082E00E94A200CCCFA6
:04077000F894FFCF2B
:10077400300033003600390001000000020001009F
:10078400010002000100020002000000010000005C
:10079400000002000000000003000100000000004F
:1007A4000000000000000000000000000200020041
:1007B4000200020000000000000000000000000031
:1007C4000000000000000000000000000000000025
:0C07D40002000000020000000100000014
:00000001FF
