:100000000C942A000C943F000C943F000C943F0089
:100010000C943F000C943F000C943F000C943F0064
:100020000C943F000C943F000C943F000C943F0054
:100030000C943F000C943F000C943F000C943F0044
:100040000C943F000C943F000C943F000C943F0034
:100050000C943F0011241FBECFE5D8E0DEBFCDBF1A
:1000600011E0A0E6B0E0ECE5F1E102C005900D92F0
:10007000A437B107D9F70E94B1070C94AC080C94CF
:100080000000AF92BF92CF92DF92EF92FF920F9358
:100090001F93CF93DF93C8EED0E03CE2C32E31E054
:1000A000D32EA8A0B9A000E010E0FE01E00FF11FE0
:1000B000E080F18060E070E0C7010E94AD0601972A
:1000C00021F4B501C7010E94EF060E5F1F4F0830F3
:1000D000110559F7E12CF12CFE01EE0DFF1D0085F5
:1000E000118561E070E0C8010E94AD06019779F4C6
:1000F000B8016F707727C80124E0969587952A95F7
:10010000E1F741E050E08F7099270E942A0582E0D4
:10011000E80EF11C88E0E816F104F1F6A296CC1680
:10012000DD0609F0BECFDF91CF911F910F91FF90B7
:10013000EF90DF90CF90BF90AF9008952F923F92B5
:100140004F925F926F927F928F929F92AF92BF92E7
:10015000CF92DF92EF92FF920F931F93CF93DF9393
:10016000CDB7DEB727970FB6F894DEBF0FBECDBF71
:1001700022E2829FF0011124E851FF4F40A051A0DC
:100180001982823008F08FC06115710509F48BC0A7
:100190007D836C839BE3FB01908392E2899F9001B6
:1001A00011243B832A8328513F4F190100E010E0BE
:1001B000F801EE0FFF1FE20DF31DE084F18447010B
:1001C00034E0969487943A95E1F7EFE08E229924F3
:1001D000FFE0EF22FF2440E050E0B701C4010E949D
:1001E0002A052A813B81200F311F3F832E83C12C9A
:1001F000D12CF101EC0DFD1DA080B180350194E002
:10020000769467949A95E1F73FE0632277248FE034
:10021000A822BB24AE014F5F5F4FB501C3010E940E
:10022000E7054114510429F481E09981911180E09E
:1002300089838981813041F092E0C90ED11CE8E0C8
:10024000CE16D104B1F620C0F601EE0FFF1F2E81AD
:100250003F81E20FF31FE851FF4F8089EC81FD8160
:1002600080838981882341F3AE014F5F5F4FB501E1
:10027000C3010E94E7054114510499F781E0998177
:10028000911180E08983EDCF41E050E0B701C401D6
:100290000E942A050F5F1F4F0430110509F088CF17
:1002A00081E090E000C027960FB6F894DEBF0FBE45
:1002B000CDBFDF91CF911F910F91FF90EF90DF9015
:1002C000CF90BF90AF909F908F907F906F905F90F6
:1002D0004F903F902F900895CF93C82F40E050E06B
:1002E00060E070E082E090E00E942A0540E050E08B
:1002F00061E070E082E090E00E942A05C4FB4427A0
:1003000040F950E063E070E082E090E00E942A054E
:10031000C5FB442740F950E064E070E082E090E0E3
:100320000E942A05C6FB442740F950E065E070E0D2
:1003300082E090E00E942A054C2F441F4427441F6E
:1003400050E066E070E082E090E00E942A0541E023
:1003500050E062E070E082E090E00E942A058FECBD
:1003600097E00197F1F700C0000040E050E062E044
:1003700070E082E090E00E942A058FEC97E0019700
:10038000F1F700C000004C2F417050E063E070E0D6
:1003900082E090E00E942A05C1FB442740F950E02A
:1003A00064E070E082E090E00E942A05C2FB4427EE
:1003B00040F950E065E070E082E090E00E942A059C
:1003C000C3FB442740F950E066E070E082E090E033
:1003D0000E942A0541E050E062E070E082E090E097
:1003E0000E942A058FEC97E00197F1F700C000000A
:1003F00040E050E062E070E082E090E00E942A0578
:100400008FEC97E00197F1F700C00000CF910895BD
:10041000CF93C82F41E050E060E070E082E090E0D0
:100420000E942A0540E050E061E070E082E090E048
:100430000E942A05C4FB442740F950E063E070E0C5
:1004400082E090E00E942A05C5FB442740F950E075
:1004500064E070E082E090E00E942A05C6FB442739
:1004600040F950E065E070E082E090E00E942A05EB
:100470004C2F441F4427441F50E066E070E082E0A8
:1004800090E00E942A0541E050E062E070E082E0E6
:1004900090E00E942A058FEC97E00197F1F700C0E9
:1004A000000040E050E062E070E082E090E00E94F6
:1004B0002A058FEC97E00197F1F700C000004C2F60
:1004C000417050E063E070E082E090E00E942A0515
:1004D000C1FB442740F950E064E070E082E090E026
:1004E0000E942A05C2FB442740F950E065E070E015
:1004F00082E090E00E942A05C3FB442740F950E0C7
:1005000066E070E082E090E00E942A0541E050E061
:1005100062E070E082E090E00E942A058FEC97E0B4
:100520000197F1F700C0000040E050E062E070E0A9
:1005300082E090E00E942A058FEC97E00197F1F7A6
:1005400000C00000CF91089561E070E080E290E08B
:100550000E94AD0661E070E081E290E00E94AD068D
:1005600061E070E082E290E00E94AD0661E070E040
:1005700083E290E00E94AD0661E070E084E290E0EA
:100580000E94AD0661E070E085E290E00E94AD0659
:1005900061E070E086E290E00E94AD062FE788E31C
:1005A00091E0215080409040E1F700C0000082E0DF
:1005B0000E946C018FEC97E00197F1F700C00000FA
:1005C00088E20E946C018FEC97E00197F1F700C080
:1005D00000008CE00E946C018FEC97E00197F1F72E
:1005E00000C0000081E00E946C018FE99FE001974C
:1005F000F1F700C0000086E00E946C018FEC97E0EC
:100600000197F1F700C0000008950F931F93CF9357
:100610008C01C0E0F801EC0FF11D8081882321F0EE
:100620000E940802CF5FF6CFCF911F910F910895DE
:1006300081E00C946C01811102C080E803C081301C
:1006400021F480EC860F0C946C0108952F923F9258
:100650004F925F926F927F928F929F92AF92BF92D2
:10066000CF92DF92EF92FF920F931F93CF93DF937E
:10067000CDB7DEB765970FB6F894DEBF0FBECDBF1E
:1006800029013A014B011C01CE0101969A8B898BFD
:1006900080E1E989FA8911928A95E9F7C101A0E020
:1006A0000E94A008D9F480E365960FB6F894DEBFE7
:1006B0000FBECDBFDF91CF911F910F91FF90EF90B3
:1006C000DF90CF90BF90AF909F908F907F906F9072
:1006D0005F904F903F902F900C940802C101A0E0D2
:1006E0000E94A0084CF40E94590829013A014B01CC
:1006F0001C018DE20E9408021B8A81E090E08C0FB1
:100700009D1FEB898E0F911D9D8B8C8B8AE0A82EEF
:10071000B12CC12CD12CE12CF12C00E010E0920185
:10072000A301B401C1010E94C907205DEC89FD89C4
:100730002083FB89FF5FFB8B9201A301B401C10100
:100740000E94CB0729013A014B011C01A0E00E9445
:10075000A00899F69B89992359F0FE012B89E20F95
:10076000F11D80810E9408028B8981508B8BF2CF12
:1007700065960FB6F894DEBF0FBECDBFDF91CF9167
:100780001F910F91FF90EF90DF90CF90BF90AF90AF
:100790009F908F907F906F905F904F903F902F90A1
:1007A0000895880F880F880F805C0C946C010F935C
:1007B0001F93CF93DF938B010E94D103E801085F61
:1007C0001F4F89910E940802C017D107D1F7DF910E
:1007D000CF911F910F9108951F93CF93DF93C82F4F
:1007E000D42F122F0E94D703612F8D2F0E941B033D
:1007F0008C2FDF91CF911F910C9408026830710506
:1008000008F0CAC04130510509F445C028F0423013
:10081000510509F47AC0C3C08130910519F1A0F0E7
:100820008230910551F1039709F0BCC021B381E0FA
:1008300090E001C0880F6A95EAF7922F982B91BB40
:1008400092B380958923A4C02AB381E090E001C0CF
:10085000880F6A95EAF7922F982B9ABB9BB38095E5
:10086000892378C027B301C0880F6A95EAF7922FD1
:10087000982B97BB98B380953AC024B381E090E061
:1008800001C0880F6A95EAF7922F982B94BB95B315
:10089000809589237BC081309105F9F090F08230FA
:1008A000910539F1039709F07DC081B301C0440F70
:1008B0006A95EAF74095842381BB82B3482342BB03
:1008C00068C08AB301C0440F6A95EAF74095842353
:1008D0008ABB8BB348234BBB5CC027B301C0880FD6
:1008E0006A95EAF78095922F982397BB98B389234E
:1008F0003EC084B301C0440F6A95EAF74095842353
:1009000084BB85B3482345BB44C08130910521F1A8
:10091000A0F08230910569F1039709F043C021B33B
:1009200081E090E001C0880F6A95EAF7982F9095D2
:10093000922391BB92B3892B2BC02AB381E090E024
:1009400001C0880F6A95EAF7982F909592239ABB79
:100950009BB3892B8BBB1DC027B301C0880F6A9541
:10096000EAF7982F9095922397BB98B3892B88BB71
:1009700010C024B381E090E001C0880F6A95EAF7C7
:10098000982F9095922394BB95B3892B85BB01C07A
:1009900082BB81E090E0089582E090E0089584E0D9
:1009A00090E0089583E090E0089561307105D9F0FA
:1009B00020F06230710579F147C08130910569F00E
:1009C00048F08230910561F0039709F040C08FEF45
:1009D00081BB1FC08FEF8ABB12C08FEF87BB14C0D3
:1009E0008FEF84BB14C08130910569F038F08230FC
:1009F000910561F0039759F511BA0BC01ABA1BBAE9
:100A000081E090E0089517BA18BAFACF14BA15BA6F
:100A1000F7CF12BAF5CF8130910571F048F08230EE
:100A2000910571F0039799F411BA8FEF82BBE8CF6B
:100A30001ABA8FEF8BBBE4CF17BA8FEF88BBE0CF2A
:100A400014BA8FEF85BBDCCF84E090E0089583E09B
:100A500090E008956830710508F065C041155105B2
:100A600069F14130510509F061C081309105B9F05B
:100A700070F082309105D1F0039709F05AC082B32B
:100A800001C0440F6A95EAF7482B42BB49C08BB3BB
:100A900001C0440F6A95EAF7482B4BBB41C028B30D
:100AA00001C0880F6A95EAF7822B2EC085B301C07A
:100AB000440F6A95EAF7482B45BB32C08130910557
:100AC000E1F080F08230910509F1039791F522B3AE
:100AD00081E090E001C0880F6A95EAF78095822353
:100AE00082BB1EC02BB381E090E001C0880F6A95E5
:100AF000EAF7809582238BBB13C028B301C0880F0F
:100B00006A95EAF78095822388BB0AC025B381E005
:100B100090E001C0880F6A95EAF78095822385BB33
:100B200081E090E0089582E090E0089585E090E013
:100B3000089583E090E008956115710521F061301A
:100B4000710591F028C08130910551F038F0823064
:100B5000910541F0039711F512BA14C01BBA12C0E7
:100B600018BA10C015BA0EC08130910571F040F06E
:100B70008230910569F0039789F48FEF82BB02C040
:100B80008FEF8BBB81E090E008958FEF88BBFACFA9
:100B90008FEF85BBF7CF85E090E0089583E090E08C
:100BA0000895FB018130910551F038F082309105B4
:100BB00049F08330910541F008958BB301C088B3AB
:100BC0008083089585B3FCCF82B380830895FA01B2
:100BD00068307105D8F48130910551F038F08230D9
:100BE000910541F00397A9F480B305C089B303C010
:100BF00086B301C083B390E002C0959587956A954E
:100C0000E2F78170808381E090E0089582E090E0D7
:100C1000089583E090E008958130910551F038F017
:100C20008230910541F0039751F462BB05C06BBB64
:100C300003C068BB01C065BB81E090E0089583E01C
:100C400090E00895AC01089768F561307105A1F056
:100C5000E0F06230710549F55AB321E030E0C90196
:100C600001C0880F4A95EAF7982F909595239ABB73
:100C70009BB3892B8BBB13C08AB301C0660F4A9507
:100C8000EAF7609568236ABB0AC05AB321E030E0F6
:100C9000C90101C0880F4A95EAF7852B8ABB81E01C
:100CA00090E0089582E090E0089585E090E0089556
:100CB0000F931F93CF93DF930CE211E0C0E0D0E0DD
:100CC000F801619171918F01CE010E94220683305B
:100CD000910531F0059721F02196C032D10581F7B9
:100CE000DF91CF911F910F91089568307105A0F5A4
:100CF0008130910561F030F08230910569F0039701
:100D000081F00895E0916600F09167000EC0E091D7
:100D10006400F091650009C0E0916200F091630009
:100D200004C0E0916000F09161004130510541F450
:100D3000828101C0440F6A95EAF7482B42830895E7
:100D4000452B51F4228181E090E001C0880F6A9523
:100D5000EAF78095822382830895FC0124E0F695CA
:100D6000E7952A95E1F7EF70282F2F70E43010F403
:100D7000283018F082E090E002C080E090E062301D
:100D8000710510F083E090E06115710599F0613014
:100D9000710521F5F0E0EE0FFF1FE459FE4F0190C1
:100DA000F081E02D818101C0660F2A95EAF7682B5A
:100DB000618312C0F0E0EE0FFF1FE459FE4F019077
:100DC000F081E02D318181E090E001C0880F2A950B
:100DD000EAF780958323818381E090E00895FC0108
:100DE00034E0F695E7953A95E1F7EF708F70613052
:100DF0007105E1F030F06230710559F185E090E065
:100E00000895F0E0EE0FFF1FE459FE4F0190F081CE
:100E1000E02D428121E030E0B90102C0660F771F6A
:100E20008A95E2F7CB01842B828310C0F0E0EE0FAD
:100E3000FF1FE459FE4F0190F081E02D928101C027
:100E4000660F8A95EAF760956923628381E090E0F6
:100E5000089584E090E00895EF92FF921F93CF935E
:100E6000DF9388E6E82E80E0F82E10E0812F86954B
:100E70008695869520E1829FC0011124C12FC770FD
:100E8000C82B0C2E000CDD0BF70160817181CE01A7
:100E90000E94AD06F70162817381CE010E94EF06C8
:100EA0001F5FF4E0EF0EF11C103201F7DF91CF91DC
:100EB0001F91FF90EF90089561307105D9F020F0F7
:100EC0006230710579F147C08130910569F048F0D1
:100ED0008230910561F0039709F040C08FEF81BB2C
:100EE0001FC08FEF8ABB12C08FEF87BB14C08FEF7C
:100EF00084BB14C08130910569F038F082309105CF
:100F000061F0039759F511BA0BC01ABA1BBA81E008
:100F100090E0089517BA18BAFACF14BA15BAF7CFF5
:100F200012BAF5CF8130910571F048F08230910509
:100F300071F0039799F411BA8FEF82BBE8CF1ABA18
:100F40008FEF8BBBE4CF17BA8FEF88BBE0CF14BA1B
:100F50008FEF85BBDCCF83E090E0089586E090E0E2
:100F60000895CF93DF931F92CDB7DEB70E94A402FE
:100F70000E9441001982BE016F5F7F4F80E00E9496
:100F80009E0060E080E00E941B0389810E940802AD
:100F9000F2CF689401C0E894F92FF12B12F00C9471
:100FA000FD07A0E0B0E0E7EDF7E00C946F08092E34
:100FB000059422F40E945908112392F4F0E80F26B8
:100FC000FFEFE094F09400951095B094C094D09405
:100FD000A194BF0ACF0ADF0AEF0AFF0A0F0B1F0B0B
:100FE0000E94080807FC0E945908CDB7DEB7ECE064
:100FF0000C948B08689401C0E8948F929F92CF93D1
:10100000DF930E940808DF91CF919F908F90089501
:1010100088249924F401E401B0E49F93AA279A1547
:101020008B049C04ED05FE05CF05D007A10798F4BD
:10103000AD2FDC2FCF2FFE2FE92D982C892E982F46
:10104000872F762F652F542F432F322F2227B8500A
:1010500031F7BF9127C01B2EBF91BB27220F331F33
:10106000441F551F661F771F881F991F881C991CD6
:10107000EE1FFF1FCC1FDD1FAA1FBB1F8A149B047E
:10108000EC05FD05CE05DF05A007B10748F08A187D
:101090009B08EC09FD09CE09DF09A00BB10B21600B
:1010A0001A94E1F62EF49401AF01BE01CD01000CBB
:1010B00008956095709580959095309540955095E0
:1010C00021953F4F4F4F5F4F6F4F7F4F8F4F9F4F38
:1010D00008952F923F924F925F926F927F928F92DC
:1010E0009F92AF92BF92CF92DF92EF92FF920F93B7
:1010F0001F93CF93DF93CDB7DEB7CA1BDB0B0FB6C1
:10110000F894DEBF0FBECDBF09942A88398848887D
:101110005F846E847D848C849B84AA84B984C88413
:10112000DF80EE80FD800C811B81AA81B981CE0F0A
:10113000D11D0FB6F894DEBF0FBECDBFED010895EF
:101140000024A7FD00942A173005400550056005CE
:0C1150007005800590050895F894FFCF0D
:10115C0030003300360039000100010001000100AD
:10116C00010001000100010001000100010001006B
:10117C00010001000100010001000100010001005B
:10118C00010001000100010001000100010001004B
:10119C00010001000100010001000000010000003D
:1011AC00010000000100000001000000010000002F
:1011BC00010000000100000001000100010001001D
:1011CC00010001000100010001000100010001000B
:1011DC0001000100010001000000010002000300F9
:1011EC0004000500060007003738392F3435362A3D
:1011FC003132332D63303D2B0000100011001200F2
:10120C0013001400150016001700414243444546D4
:10121C004748494A4B4C4D4E4F50000000000000CF
:10122C0000000000000000000000000002000200AE
:10123C00020002000000000000000000000000009E
:10124C000000000000000000000000000000000092
:10125C00020000000200000001000000390036000E
:04126C00330030001B
:00000001FF
