:100000000C942A000C943F000C943F000C943F0089
:100010000C943F000C943F000C943F000C943F0064
:100020000C943F000C943F000C943F000C943F0054
:100030000C943F000C943F000C943F000C943F0044
:100040000C943F000C943F000C943F000C943F0034
:100050000C943F0011241FBECFE5D8E0DEBFCDBF1A
:1000600010E0A0E6B0E0E0EEF5E002C005900D92F1
:10007000A836B107D9F70E9447020C94EE020C94FF
:1000800000004130510509F445C028F042305105C7
:1000900009F47CC0BFC08130910519F1A0F0823015
:1000A000910551F1039709F0B8C021B381E090E0C8
:1000B00001C0880F6A95EAF7922F982B91BB92B3F3
:1000C00080958923A5C02AB381E090E001C0880F04
:1000D0006A95EAF7922F982B9ABB9BB38095892358
:1000E00079C027B301C0880F6A95EAF7922F982B41
:1000F00097BB98B380953CC024B381E090E001C0E9
:10010000880F6A95EAF7922F982B94BB95B3809548
:1001100089237CC08130910509F190F082309105EE
:1001200049F1039709F079C081B301C0440F6A9582
:10013000EAF74095842381BB82B3482342BB0BC0BE
:100140008AB301C0440F6A95EAF7409584238ABBBD
:100150008BB348234BBB81E090E0089527B301C0E7
:10016000880F6A95EAF78095922F982397BB98B3EA
:1001700089233DC084B301C0440F6A95EAF74095D6
:10018000842384BB85B3482345BBE5CF81309105EB
:1001900019F198F08230910561F10397F1F521B3DF
:1001A00081E090E001C0880F6A95EAF7982F90955A
:1001B000922391BB92B3892B2BC02AB381E090E0AC
:1001C00001C0880F6A95EAF7982F909592239ABB01
:1001D0009BB3892B8BBBBFCF27B301C0880F6A9518
:1001E000EAF7982F9095922397BB98B3892B88BBF9
:1001F000B2CF24B381E090E001C0880F6A95EAF79E
:10020000982F9095922394BB95B3892B85BBA3CF50
:1002100082BBA1CF84E090E0089583E090E0089550
:1002200061307105D9F020F06230710579F147C075
:100230008130910569F048F08230910561F00397B3
:1002400009F040C08FEF81BB1FC08FEF8ABB12C087
:100250008FEF87BB14C08FEF84BB14C08130910532
:1002600069F038F08230910561F0039759F511BAC1
:100270000BC01ABA1BBA81E090E0089517BA18BAF9
:10028000FACF14BA15BAF7CF12BAF5CF813091056B
:1002900071F048F08230910571F0039799F411BA2A
:1002A0008FEF82BBE8CF1ABA8FEF8BBBE4CF17BAC0
:1002B0008FEF88BBE0CF14BA8FEF85BBDCCF84E033
:1002C00090E0089583E090E008956830710508F0AB
:1002D00065C04115510569F14130510509F061C012
:1002E00081309105B9F070F082309105D1F003971B
:1002F00009F05AC082B301C0440F6A95EAF7482B4F
:1003000042BB49C08BB301C0440F6A95EAF7482B42
:100310004BBB41C028B301C0880F6A95EAF7822B16
:100320002EC085B301C0440F6A95EAF7482B45BB40
:1003300032C081309105E1F080F08230910509F101
:10034000039791F522B381E090E001C0880F6A9590
:10035000EAF78095822382BB1EC02BB381E090E038
:1003600001C0880F6A95EAF7809582238BBB13C082
:1003700028B301C0880F6A95EAF78095822388BB6D
:100380000AC025B381E090E001C0880F6A95EAF7C2
:100390008095822385BB81E090E0089582E090E023
:1003A000089585E090E0089583E090E00895611558
:1003B000710521F06130710591F028C081309105FF
:1003C00051F038F08230910541F0039711F512BADF
:1003D00014C01BBA12C018BA10C015BA0EC08130B2
:1003E000910571F040F08230910569F0039789F42E
:1003F0008FEF82BB02C08FEF8BBB81E090E008954E
:100400008FEF88BBFACF8FEF85BBF7CF85E090E009
:10041000089583E090E00895FA0168307105D8F4FA
:100420008130910551F038F08230910541F0039709
:10043000A9F480B305C089B303C086B301C083B3F8
:1004400090E002C0959587956A95E2F78170808368
:1004500081E090E0089582E090E0089583E090E0EC
:1004600008958130910551F038F08230910541F0C6
:10047000039751F462BB05C06BBB03C068BB01C0EE
:1004800065BB81E090E0089583E090E00895CF930C
:10049000DF9300D000D0CDB7DEB740E050E060E0A1
:1004A00070E080E090E00E94410040E050E060E0B9
:1004B00070E081E090E00E94410040E050E060E0A8
:1004C00070E082E090E00E94410040E050E060E097
:1004D00070E083E090E00E94410042E050E061E083
:1004E00070E080E090E00E94410042E050E061E076
:1004F00070E081E090E00E94410042E050E061E065
:1005000070E082E090E00E94410042E050E061E053
:1005100070E083E090E00E9441001C821B821A82FE
:100520001982AE014C5F5F4F61E070E080E090E0C7
:100530000E940C02AE014D5F5F4F61E070E081E010
:1005400090E00E940C02AE014E5F5F4F61E070E0F0
:1005500082E090E00E940C02AE014F5F5F4F61E0CD
:1005600070E083E090E00E940C028C81811103C056
:1005700041E050E002C040E050E060E070E080E028
:1005800090E00E9465018B81811103C041E050E041
:1005900002C040E050E060E070E081E090E00E9446
:1005A00065018A81811103C041E050E002C040E052
:1005B00050E060E070E082E090E00E946501898197
:1005C000811103C041E050E002C040E050E060E033
:1005D00070E083E090E00E946501A3CFF894FFCF24
:0805E000300033003600390041
:00000001FF
