:100000000C942A000C9447000C9447000C94470071
:100010000C9447000C9447000C9447000C94470044
:100020000C9447000C9447000C9447000C94470034
:100030000C9447000C9447000C9447000C94470024
:100040000C9447000C9447000C9447000C94470014
:100050000C94470011241FBECFE5D8E0DEBFCDBF12
:1000600010E0A0E6B0E0EEECF6E002C005900D92E4
:10007000A03FB107D9F720E0A0EFB0E001C01D928A
:10008000A83FB207E1F70E9443030C9465030C9468
:100090000000FC01892BD9F040815181CA01877B86
:1000A000892BC1F422813381C9018F7C892BA9F46A
:1000B000848195818830910598F4242B822B83BF0D
:1000C000868182BF87818CBF80E090E0089584E0C4
:1000D00090E0089581E090E0089582E090E0089536
:1000E00083E090E008958830910548F493B7987FB5
:1000F00093BF93B7892B83BF80E090E0089583E09E
:1001000090E0089583B7887F83BF80E090E00895F2
:1001100082BF80E090E008958CBF80E090E0089579
:10012000009741F022B730E0FC013183208380E06A
:1001300090E0089584E090E00895009771F003B690
:1001400003FE0EC02CB742B730E0241B3109FC017E
:100150003183208380E090E0089584E090E008956A
:1001600081E090E0089589B7816089BF80E090E0E8
:10017000089589B78E7F89BF80E090E0089589B7A0
:10018000826089BF80E090E0089589B78D7F89BF44
:1001900080E090E00895009739F09093F700809305
:1001A000F60080E090E0089584E090E008950097E4
:1001B00039F09093F5008093F40080E090E008958A
:1001C00084E090E00895FC01892B49F093B7937087
:1001D00081E009F480E0808380E090E0089584E08D
:1001E00090E00895FC01892BD9F040815181CA012A
:1001F000877B892BC1F422813381C9018F7C892BB4
:10020000A9F4848195818830910598F4242B822B60
:1002100085BD868184BD878183BD80E090E008959F
:1002200084E090E0089581E090E0089582E090E01D
:10023000089583E090E008958830910548F495B5DD
:10024000987F95BD95B5892B85BD80E090E0089598
:1002500083E090E0089585B5887F85BD80E090E0DB
:10026000089584BD80E090E0089583BD80E090E033
:100270000895009741F024B530E0FC0131832083DC
:1002800080E090E0089584E090E00895009771F098
:1002900005B403FE0EC023B544B530E0241B31097C
:1002A000FC013183208380E090E0089584E090E0B9
:1002B000089581E090E0089589B7806489BF80E067
:1002C00090E0089589B78F7B89BF80E090E0089522
:1002D00089B7806889BF80E090E0089589B78F77FB
:1002E00089BF80E090E00895009739F09093F30083
:1002F0008093F20080E090E0089584E090E008951B
:10030000009739F09093F1008093F00080E090E046
:10031000089584E090E00895FC01892B49F095B59B
:10032000937081E009F480E0808380E090E008959C
:1003300084E090E008951F920F920FB60F9211245F
:100340002F933F934F935F936F937F938F939F93DD
:10035000AF93BF93EF93FF93E091F600F091F70016
:10036000309709F00995FF91EF91BF91AF919F915F
:100370008F917F916F915F914F913F912F910F904E
:100380000FBE0F901F9018951F920F920FB60F92ED
:1003900011242F933F934F935F936F937F938F938A
:1003A0009F93AF93BF93EF93FF93E091F400F0918D
:1003B000F500309709F00995FF91EF91BF91AF914A
:1003C0009F918F917F916F915F914F913F912F916D
:1003D0000F900FBE0F901F9018951F920F920FB69F
:1003E0000F9211242F933F934F935F936F937F93BB
:1003F0008F939F93AF93BF93EF93FF93E091F2009E
:10040000F091F300309709F00995FF91EF91BF91BA
:10041000AF919F918F917F916F915F914F913F919C
:100420002F910F900FBE0F901F9018951F920F9253
:100430000FB60F9211242F933F934F935F936F93B7
:100440007F938F939F93AF93BF93EF93FF93E0912D
:10045000F000F091F100309709F00995FF91EF91CC
:10046000BF91AF919F918F917F916F915F914F91CC
:100470003F912F910F900FBE0F901F901895FC0188
:1004800024E0F695E7952A95E1F7EF70282F2F7075
:10049000E43010F4283018F082E090E002C080E0F0
:1004A00090E06230710510F083E090E06115710515
:1004B00099F06130710521F5F0E0EE0FFF1FE85172
:1004C000FF4F0190F081E02D818101C0660F2A95D8
:1004D000EAF7682B618312C0F0E0EE0FFF1FE851CE
:1004E000FF4F0190F081E02D318181E090E001C06B
:1004F000880F2A95EAF780958323818381E090E035
:100500000895FC0134E0F695E7953A95E1F7EF7030
:100510008F7061307105E1F030F06230710559F192
:1005200085E090E00895F0E0EE0FFF1FE851FF4FE7
:100530000190F081E02D428121E030E0B90102C05C
:10054000660F771F8A95E2F7CB01842B828310C058
:10055000F0E0EE0FFF1FE851FF4F0190F081E02D1A
:10056000928101C0660F8A95EAF7609569236283DC
:1005700081E090E0089584E090E00895EF92FF928A
:100580001F93CF93DF9380E6E82E80E0F82E10E0F3
:10059000812F86958695869520E1829FC001112442
:1005A000C12FC770C82B0C2E000CDD0BF70160812A
:1005B0007181CE010E943F02F70162817381CE01F9
:1005C0000E9481021F5FF4E0EF0EF11C103201F770
:1005D000DF91CF911F91FF90EF90089561307105E9
:1005E000D9F020F06230710579F147C08130910572
:1005F00069F048F08230910561F0039709F040C03E
:100600008FEF81BB1FC08FEF8ABB12C08FEF87BBFC
:1006100014C08FEF84BB14C08130910569F038F0AD
:100620008230910561F0039759F511BA0BC01ABADF
:100630001BBA81E090E0089517BA18BAFACF14BA3D
:1006400015BAF7CF12BAF5CF8130910571F048F0A5
:100650008230910571F0039799F411BA8FEF82BB44
:10066000E8CF1ABA8FEF8BBBE4CF17BA8FEF88BBF6
:10067000E0CF14BA8FEF85BBDCCF83E090E0089524
:1006800086E090E00895CF93DF93CDB7DEB728974B
:100690000FB6F894DEBF0FBECDBF61E070E087E11A
:1006A00090E00E943F0288E0E0EEF0E0DE0111966B
:1006B00001900D928A95E1F7CE0101960E94F20019
:0E06C00084E090E00E941C01FFCFF894FFCF71
:1006CE000100010001000100010001000100010014
:1006DE000100010001000100010001000100010004
:1006EE0001000100010001000000000001000100F6
:1006FE0001000100010001000100010001000100E4
:10070E0001000000010000000100000001000000D7
:10071E0001000000010000000100000001000000C7
:10072E0001000100010001000000000000000000B7
:10073E0001000100010001000100010001000100A3
:10074E00480020000000007F3900360033003000E2
:00000001FF
