:100000000C942A000C94B8010C94E1010C940A029F
:100010000C9447000C9447000C9447000C94470044
:100020000C9447000C9447000C9447000C94470034
:100030000C9447000C9447000C9447000C94470024
:100040000C9447000C9447000C9447000C94470014
:100050000C94470011241FBECFE5D8E0DEBFCDBF12
:1000600010E0A0E6B0E0EAE4F7E002C005900D92EF
:10007000A23FB107D9F720E0A2EFB0E001C01D9286
:10008000AD3FB207E1F70E9437030C94A3030C9431
:10009000000080916000882379F08091F2008F3F0A
:1000A00059F08091F200875E8093F2008091F20017
:1000B0008091F2000C94C50008958091600088231F
:1000C00079F08091F200882359F08091F2008951F3
:1000D0008093F2008091F2008091F2000C94C500B0
:1000E00008959091600081E0911180E0809360001C
:1000F00080916000882319F08091F20001C080E0B7
:100100000C94C500FC01892BD9F040815181CA01B2
:10011000877B892BC1F422813381C9018F7C892B94
:10012000A9F4848195818830910598F4242B822B41
:1001300083BF868182BF87818CBF80E090E0089575
:1001400084E090E0089581E090E0089582E090E0FE
:10015000089583E090E008958830910548F493B7BE
:10016000987F93BF93B7892B83BF80E090E0089579
:1001700083E090E0089583B7887F83BF80E090E0BC
:10018000089582BF80E090E008958CBF80E090E009
:100190000895009741F022B730E0FC0131832083BD
:1001A00080E090E0089584E090E00895009771F079
:1001B00003B603FE0EC02CB742B730E0241B310952
:1001C000FC013183208380E090E0089584E090E09A
:1001D000089581E090E0089589B7816089BF80E04B
:1001E00090E0089589B78E7F89BF80E090E0089500
:1001F00089B7826089BF80E090E0089589B78D7FDC
:1002000089BF80E090E00895009739F09093F60060
:100210008093F50080E090E0089584E090E00895F8
:10022000009739F09093F4008093F30080E090E021
:10023000089584E090E00895FC01892B49F093B77C
:10024000937081E009F480E0808380E090E008957D
:1002500084E090E008951F920F920FB60F92112440
:100260002F933F934F935F936F937F938F939F93BE
:10027000AF93BF93EF93FF93E091F500F091F600F9
:10028000309709F00995FF91EF91BF91AF919F9140
:100290008F917F916F915F914F913F912F910F902F
:1002A0000FBE0F901F9018951F920F920FB60F92CE
:1002B00011242F933F934F935F936F937F938F936B
:1002C0009F93AF93BF93EF93FF93E091F300F0916F
:1002D000F400309709F00995FF91EF91BF91AF912C
:1002E0009F918F917F916F915F914F913F912F914E
:1002F0000F900FBE0F901F901895F8948BB78064E5
:100300008BBF85B7836085BF8BB780688BBF85B790
:100310008C6085BF8BB780628BBF84B7806484BFDD
:10032000789408959FEF980F9330C0F4611571058C
:10033000C1F0823039F0833051F07093FC0060934B
:10034000FB0009C07093FA006093F90004C0709339
:10035000F8006093F70081E090E0089582E090E07B
:10036000089583E090E0089578940895F8940895AE
:100370001F920F920FB60F9211242F933F934F931A
:100380005F936F937F938F939F93AF93BF93EF93FD
:10039000FF93E091FB00F091FC00309709F0099584
:1003A000FF91EF91BF91AF919F918F917F916F914D
:1003B0005F914F913F912F910F900FBE0F901F9023
:1003C00018951F920F920FB60F9211242F933F93FF
:1003D0004F935F936F937F938F939F93AF93BF934D
:1003E000EF93FF93E091F900F091FA00309709F054
:1003F0000995FF91EF91BF91AF919F918F917F915F
:100400006F915F914F913F912F910F900FBE0F9081
:100410001F9018951F920F920FB60F9211242F93D1
:100420003F934F935F936F937F938F939F93AF937C
:10043000BF93EF93FF93E091F700F091F8003097AE
:1004400009F00995FF91EF91BF91AF919F918F9125
:100450007F916F915F914F913F912F910F900FBEC0
:100460000F901F901895FC0124E0F695E7952A95CA
:10047000E1F7EF70282F2F70E43010F4283018F0D7
:1004800082E090E002C080E090E06230710510F000
:1004900083E090E06115710599F06130710521F5F7
:1004A000F0E0EE0FFF1FE751FF4F0190F081E02DCC
:1004B000818101C0660F2A95EAF7682B618312C01B
:1004C000F0E0EE0FFF1FE751FF4F0190F081E02DAC
:1004D000318181E090E001C0880F2A95EAF780958C
:1004E0008323818381E090E00895FC0134E0F69558
:1004F000E7953A95E1F7EF708F7061307105E1F0A3
:1005000030F06230710559F185E090E00895F0E037
:10051000EE0FFF1FE751FF4F0190F081E02D428168
:1005200021E030E0B90102C0660F771F8A95E2F73B
:10053000CB01842B828310C0F0E0EE0FFF1FE75148
:10054000FF4F0190F081E02D928101C0660F8A95E6
:10055000EAF760956923628381E090E0089584E082
:1005600090E00895EF92FF921F93CF93DF9381E67F
:10057000E82E80E0F82E10E0812F869586958695EE
:1005800020E1829FC0011124C12FC770C82B0C2EFF
:10059000000CDD0BF70160817181CE010E943302F6
:1005A000F70162817381CE010E9475021F5FF4E042
:1005B000EF0EF11C103201F7DF91CF911F91FF90E8
:1005C000EF90089561307105D9F020F06230710527
:1005D00079F147C08130910569F048F0823091058A
:1005E00061F0039709F040C08FEF81BB1FC08FEF10
:1005F0008ABB12C08FEF87BB14C08FEF84BB14C0BF
:100600008130910569F038F08230910561F00397EF
:1006100059F511BA0BC01ABA1BBA81E090E00895DF
:1006200017BA18BAFACF14BA15BAF7CF12BAF5CF6B
:100630008130910571F048F08230910571F0039797
:1006400099F411BA8FEF82BBE8CF1ABA8FEF8BBB48
:10065000E4CF17BA8FEF88BBE0CF14BA8FEF85BB1A
:10066000DCCF83E090E0089586E090E00895CF939A
:10067000DF93CDB7DEB728970FB6F894DEBF0FBE75
:10068000CDBF61E070E083E190E00E94330260E062
:1006900070E082E390E00E94330260E070E083E368
:1006A00090E00E94330260E070E082E190E00E94FE
:1006B000330260E070E082E390E00E94750260E047
:1006C00070E083E390E00E94750260E070E082E1F8
:1006D00090E00E94750288E0E1EEF0E0DE01119604
:1006E00001900D928A95E1F7CE0101960E94820059
:1006F000892B09F0FFCF83E090E00E94AC000E94BC
:100700007D0169E470E081E00E949201019709F0A7
:10071000FFCF6DE570E082E00E949201019709F041
:10072000FFCF61E770E083E00E949201019709F03A
:10073000FFCF2FEF80E792E0215080409040E1F71B
:0A07400000C00000F6CFF894FFCFD0
:10074A000101000100010001000100010001000196
:10075A000001000100010001000100010001000187
:10076A000001000100010001000000000001000179
:10077A000001000100010001000100010001000167
:10078A00000100000001000000010000000100005B
:10079A00000100000001000000010000000100004B
:1007AA00000100010001000100000000000000003B
:1007BA000001000100010001000100010001000127
:1007CA0000480020000000000039003600330030E5
:0207DA0000001D
:00000001FF
